{
  "contractName": "TestFuzzBuzz",
  "abi": [
    {
      "inputs": [
        {
          "internalType": "uint256",
          "name": "x",
          "type": "uint256"
        }
      ],
      "name": "testfuzzbuzz",
      "outputs": [
        {
          "internalType": "string",
          "name": "",
          "type": "string"
        }
      ],
      "stateMutability": "pure",
      "type": "function"
    }
  ],
  "bytecode": "0x608060405234801561001057600080fd5b50610304806100206000396000f3fe608060405234801561001057600080fd5b506004361061002b5760003560e01c8063dbf5bba314610030575b600080fd5b61004a6004803603810190610045919061018f565b610060565b604051610057919061024c565b60405180910390f35b606061006b82610072565b9050919050565b60606000600383610083919061029d565b036100c5576040518060400160405280600f81526020017f446976697369626c652062792033210000000000000000000000000000000000815250905061014f565b60006005836100d4919061029d565b03610116576040518060400160405280600f81526020017f446976697369626c652062792035210000000000000000000000000000000000815250905061014f565b6040518060400160405280601a81526020017f536f7272792c20706c656173652074727920616761696e2e2e2e00000000000081525090505b919050565b600080fd5b6000819050919050565b61016c81610159565b811461017757600080fd5b50565b60008135905061018981610163565b92915050565b6000602082840312156101a5576101a4610154565b5b60006101b38482850161017a565b91505092915050565b600081519050919050565b600082825260208201905092915050565b60005b838110156101f65780820151818401526020810190506101db565b60008484015250505050565b6000601f19601f8301169050919050565b600061021e826101bc565b61022881856101c7565b93506102388185602086016101d8565b61024181610202565b840191505092915050565b600060208201905081810360008301526102668184610213565b905092915050565b7f4e487b7100000000000000000000000000000000000000000000000000000000600052601260045260246000fd5b60006102a882610159565b91506102b383610159565b9250826102c3576102c261026e565b5b82820690509291505056fea26469706673582212203fac9066c4554a22250f3ea5ba25ccf3b793f8255ffdbddfca69a5b7ee076f1464736f6c63430008110033",
  "immutableReferences": {},
  "source": "// SPDX-License-Identifier: MIT\npragma solidity >=0.4.22 <0.9.0;\n\n\nlibrary FuzzBuzz {\n\n  function fuzzbuzz(uint value1) internal pure returns(string memory) {\n\n    if(value1 % 3 == 0){\n         return \"Divisible by 3!\";\n\n    }\n    else if(value1 % 5 == 0){\n\n      return \"Divisible by 5!\";\n\n    }\n    else{\n      return \"Sorry, please try again...\";\n    }\n    \n  }\n  \n}\n\n\n// TESTING CASE FOR FUZZBUZZ LIBRARY\n\ncontract TestFuzzBuzz{\n  function testfuzzbuzz(uint x) public pure returns(string memory) {\n    \n     return FuzzBuzz.fuzzbuzz(x);\n    \n  }\n}",
  "sourcePath": "C:\\Users\\HP\\OneDrive\\Documents\\Solidity projects\\fifth_project\\contracts\\fifth_project.sol",
  "compiler": {
    "name": "solc",
    "version": "0.8.17+commit.8df45f5f.Emscripten.clang"
  },
  "schemaVersion": "3.4.11",
  "updatedAt": "2023-01-10T16:47:07.105Z",
  "devdoc": {
    "kind": "dev",
    "methods": {},
    "version": 1
  },
  "userdoc": {
    "kind": "user",
    "methods": {},
    "version": 1
  }
}